{
  "_format": "hh-sol-artifact-1",
  "contractName": "WavePortal",
  "sourceName": "contracts/WavePortal.sol",
  "abi": [
    {
      "inputs": [],
      "stateMutability": "nonpayable",
      "type": "constructor"
    },
    {
      "inputs": [],
      "name": "getTotalWaves",
      "outputs": [
        {
          "internalType": "uint256",
          "name": "",
          "type": "uint256"
        }
      ],
      "stateMutability": "view",
      "type": "function"
    },
    {
      "inputs": [],
      "name": "seeWaves",
      "outputs": [
        {
          "internalType": "uint256",
          "name": "",
          "type": "uint256"
        }
      ],
      "stateMutability": "view",
      "type": "function"
    },
    {
      "inputs": [],
      "name": "wave",
      "outputs": [],
      "stateMutability": "nonpayable",
      "type": "function"
    },
    {
      "inputs": [
        {
          "internalType": "address",
          "name": "",
          "type": "address"
        }
      ],
      "name": "waver",
      "outputs": [
        {
          "internalType": "uint256",
          "name": "",
          "type": "uint256"
        }
      ],
      "stateMutability": "view",
      "type": "function"
    }
  ],
  "bytecode": "0x608060405234801561001057600080fd5b506100596040518060400160405280601b81526020017f594f20794f204920616d206120736d61727420636f6e7472616374000000000081525061005e60201b6102a01760201c565b6101d8565b6100fa8160405160240161007291906101b6565b6040516020818303038152906040527f41304fac000000000000000000000000000000000000000000000000000000007bffffffffffffffffffffffffffffffffffffffffffffffffffffffff19166020820180517bffffffffffffffffffffffffffffffffffffffffffffffffffffffff83818316178352505050506100fd60201b60201c565b50565b60008151905060006a636f6e736f6c652e6c6f679050602083016000808483855afa5050505050565b600081519050919050565b600082825260208201905092915050565b60005b83811015610160578082015181840152602081019050610145565b60008484015250505050565b6000601f19601f8301169050919050565b600061018882610126565b6101928185610131565b93506101a2818560208601610142565b6101ab8161016c565b840191505092915050565b600060208201905081810360008301526101d0818461017d565b905092915050565b6107f5806101e76000396000f3fe608060405234801561001057600080fd5b506004361061004c5760003560e01c806355952fca146100515780636fe15b441461006f5780639a2cdc0814610079578063b3a58d9714610097575b600080fd5b6100596100c7565b6040516100669190610552565b60405180910390f35b61007761018d565b005b61008161023d565b60405161008e9190610552565b60405180910390f35b6100b160048036038101906100ac91906105d0565b610288565b6040516100be9190610552565b60405180910390f35b60006101486040518060400160405280600f81526020017f257320686173202564207761766573000000000000000000000000000000000081525033600160003373ffffffffffffffffffffffffffffffffffffffff1673ffffffffffffffffffffffffffffffffffffffff16815260200190815260200160002054610339565b600160003373ffffffffffffffffffffffffffffffffffffffff1673ffffffffffffffffffffffffffffffffffffffff16815260200190815260200160002054905090565b60018060003373ffffffffffffffffffffffffffffffffffffffff1673ffffffffffffffffffffffffffffffffffffffff16815260200190815260200160002060008282546101dc919061062c565b9250508190555060016000808282546101f5919061062c565b9250508190555061023b6040518060400160405280600c81526020017f2573206861732057617665640000000000000000000000000000000000000000815250336103d8565b565b60006102806040518060400160405280601781526020017f5765206861766520256420746f74616c20776176657321000000000000000000815250600054610474565b600054905090565b60016020528060005260406000206000915090505481565b610336816040516024016102b491906106f0565b6040516020818303038152906040527f41304fac000000000000000000000000000000000000000000000000000000007bffffffffffffffffffffffffffffffffffffffffffffffffffffffff19166020820180517bffffffffffffffffffffffffffffffffffffffffffffffffffffffff8381831617835250505050610510565b50565b6103d383838360405160240161035193929190610721565b6040516020818303038152906040527f0d26b925000000000000000000000000000000000000000000000000000000007bffffffffffffffffffffffffffffffffffffffffffffffffffffffff19166020820180517bffffffffffffffffffffffffffffffffffffffffffffffffffffffff8381831617835250505050610510565b505050565b61047082826040516024016103ee92919061075f565b6040516020818303038152906040527f319af333000000000000000000000000000000000000000000000000000000007bffffffffffffffffffffffffffffffffffffffffffffffffffffffff19166020820180517bffffffffffffffffffffffffffffffffffffffffffffffffffffffff8381831617835250505050610510565b5050565b61050c828260405160240161048a92919061078f565b6040516020818303038152906040527fb60e72cc000000000000000000000000000000000000000000000000000000007bffffffffffffffffffffffffffffffffffffffffffffffffffffffff19166020820180517bffffffffffffffffffffffffffffffffffffffffffffffffffffffff8381831617835250505050610510565b5050565b60008151905060006a636f6e736f6c652e6c6f679050602083016000808483855afa5050505050565b6000819050919050565b61054c81610539565b82525050565b60006020820190506105676000830184610543565b92915050565b600080fd5b600073ffffffffffffffffffffffffffffffffffffffff82169050919050565b600061059d82610572565b9050919050565b6105ad81610592565b81146105b857600080fd5b50565b6000813590506105ca816105a4565b92915050565b6000602082840312156105e6576105e561056d565b5b60006105f4848285016105bb565b91505092915050565b7f4e487b7100000000000000000000000000000000000000000000000000000000600052601160045260246000fd5b600061063782610539565b915061064283610539565b925082820190508082111561065a576106596105fd565b5b92915050565b600081519050919050565b600082825260208201905092915050565b60005b8381101561069a57808201518184015260208101905061067f565b60008484015250505050565b6000601f19601f8301169050919050565b60006106c282610660565b6106cc818561066b565b93506106dc81856020860161067c565b6106e5816106a6565b840191505092915050565b6000602082019050818103600083015261070a81846106b7565b905092915050565b61071b81610592565b82525050565b6000606082019050818103600083015261073b81866106b7565b905061074a6020830185610712565b6107576040830184610543565b949350505050565b6000604082019050818103600083015261077981856106b7565b90506107886020830184610712565b9392505050565b600060408201905081810360008301526107a981856106b7565b90506107b86020830184610543565b939250505056fea264697066735822122015d31b4440b99e386b3226617eda01ada146c92e698363643dfa950ae80c710e64736f6c63430008120033",
  "linkReferences": {},
  "deployedLinkReferences": {}
}